:0400000017C0FECF58
:10000400FDCFFCCFFBCFFACFF9CFF8CFF7CFF6CFA8
:1000140039C0F4CFF3CFF2CFF1CFF0CFEFCFEECFA3
:10002400EDCF00000200040026000000F894EE2743
:10003400ECBBF1E0FBBFEBBFE5BF8DE0A2E0BB276B
:10004400ED938A95E9F780E094E0A0E6ED930197BB
:10005400E9F7E8E2F0E085919591009761F0A591C8
:10006400B59105901590BF01F00105900D9201978F
:10007400E1F7FB01F0CFEFE5EDBFE4E0EEBFC0E652
:10008400D1E004C01A931FB1199118950DD0E4B3AF
:10009400EC7FE4BBE5B3E360E5BB78940AD05E2E65
:1000A400A52D0ED0FBCFFFCFE8E2E7BBE0E5EDB92D
:1000B4000895989902C0E1E00895E0E00895089554
:1000C400AA93E881EFB9779BFECFEFB1219608950B
:00000001FF
