:0200000017C027
:10000200FECFFDCFFCCFFBCFFACFF9CFF8CFF7CFA2
:10001200F6CFF5CFF4CFF3CFF2CFF1CFF0CFEFCFD2
:10002200EECFEDCF00000200040026000000F8949D
:10003200EE27ECBBF1E0FBBFEBBFE5BF8DE0A2E03A
:10004200BB27ED938A95E9F780E094E0A0E6ED9373
:100052000197E9F7E8E2F0E085919591009761F068
:10006200A591B59105901590BF01F00105900D92F3
:100072000197E1F7FB01F0CFEFE5EDBFE4E0EEBF62
:10008200C0E6D1E000C00BD0EFEFE1BB78940CD01A
:10009200E03011F4909801C0909AF9CFFFCFE0E1DF
:1000A200E7BBE0E4EDB90895779BFECFEFB1089589
:00000001FF
